{
  "contractName": "KYC",
  "abi": [
    {
      "inputs": [
        {
          "internalType": "string",
          "name": "name_",
          "type": "string"
        },
        {
          "internalType": "string",
          "name": "email_",
          "type": "string"
        }
      ],
      "stateMutability": "nonpayable",
      "type": "constructor"
    },
    {
      "anonymous": false,
      "inputs": [
        {
          "indexed": false,
          "internalType": "address",
          "name": "id_",
          "type": "address"
        },
        {
          "indexed": false,
          "internalType": "string",
          "name": "name",
          "type": "string"
        }
      ],
      "name": "BankActivated",
      "type": "event"
    },
    {
      "anonymous": false,
      "inputs": [
        {
          "indexed": false,
          "internalType": "address",
          "name": "id_",
          "type": "address"
        },
        {
          "indexed": false,
          "internalType": "string",
          "name": "name",
          "type": "string"
        },
        {
          "indexed": false,
          "internalType": "string",
          "name": "email",
          "type": "string"
        },
        {
          "indexed": false,
          "internalType": "string",
          "name": "ifscCode",
          "type": "string"
        }
      ],
      "name": "BankAdded",
      "type": "event"
    },
    {
      "anonymous": false,
      "inputs": [
        {
          "indexed": false,
          "internalType": "address",
          "name": "id_",
          "type": "address"
        },
        {
          "indexed": false,
          "internalType": "string",
          "name": "name",
          "type": "string"
        }
      ],
      "name": "BankDeactivated",
      "type": "event"
    },
    {
      "anonymous": false,
      "inputs": [
        {
          "indexed": false,
          "internalType": "address",
          "name": "id_",
          "type": "address"
        },
        {
          "indexed": false,
          "internalType": "string",
          "name": "name",
          "type": "string"
        },
        {
          "indexed": false,
          "internalType": "string",
          "name": "email",
          "type": "string"
        }
      ],
      "name": "BankUpdated",
      "type": "event"
    },
    {
      "anonymous": false,
      "inputs": [
        {
          "indexed": false,
          "internalType": "address",
          "name": "id_",
          "type": "address"
        },
        {
          "indexed": false,
          "internalType": "string",
          "name": "name",
          "type": "string"
        },
        {
          "indexed": false,
          "internalType": "string",
          "name": "email",
          "type": "string"
        }
      ],
      "name": "CustomerAdded",
      "type": "event"
    },
    {
      "anonymous": false,
      "inputs": [
        {
          "indexed": false,
          "internalType": "address",
          "name": "id_",
          "type": "address"
        },
        {
          "indexed": false,
          "internalType": "string",
          "name": "name",
          "type": "string"
        },
        {
          "indexed": false,
          "internalType": "string",
          "name": "email",
          "type": "string"
        }
      ],
      "name": "CustomerDataUpdated",
      "type": "event"
    },
    {
      "anonymous": false,
      "inputs": [
        {
          "indexed": false,
          "internalType": "string",
          "name": "reqId",
          "type": "string"
        },
        {
          "indexed": false,
          "internalType": "address",
          "name": "customerId",
          "type": "address"
        },
        {
          "indexed": false,
          "internalType": "address",
          "name": "bankId",
          "type": "address"
        },
        {
          "indexed": false,
          "internalType": "enum Types.DataHashStatus",
          "name": "status",
          "type": "uint8"
        }
      ],
      "name": "DataHashPermissionChanged",
      "type": "event"
    },
    {
      "anonymous": false,
      "inputs": [
        {
          "indexed": false,
          "internalType": "address",
          "name": "id_",
          "type": "address"
        },
        {
          "indexed": false,
          "internalType": "string",
          "name": "customerName",
          "type": "string"
        },
        {
          "indexed": false,
          "internalType": "string",
          "name": "dataHash",
          "type": "string"
        }
      ],
      "name": "DataHashUpdated",
      "type": "event"
    },
    {
      "anonymous": false,
      "inputs": [
        {
          "indexed": false,
          "internalType": "string",
          "name": "reqId",
          "type": "string"
        },
        {
          "indexed": false,
          "internalType": "string",
          "name": "bankName",
          "type": "string"
        },
        {
          "indexed": false,
          "internalType": "string",
          "name": "customerName",
          "type": "string"
        }
      ],
      "name": "KycReRequested",
      "type": "event"
    },
    {
      "anonymous": false,
      "inputs": [
        {
          "indexed": false,
          "internalType": "string",
          "name": "reqId",
          "type": "string"
        },
        {
          "indexed": false,
          "internalType": "string",
          "name": "bankName",
          "type": "string"
        },
        {
          "indexed": false,
          "internalType": "string",
          "name": "customerName",
          "type": "string"
        }
      ],
      "name": "KycRequestAdded",
      "type": "event"
    },
    {
      "anonymous": false,
      "inputs": [
        {
          "indexed": false,
          "internalType": "string",
          "name": "reqId",
          "type": "string"
        },
        {
          "indexed": false,
          "internalType": "address",
          "name": "customerId",
          "type": "address"
        },
        {
          "indexed": false,
          "internalType": "address",
          "name": "bankId",
          "type": "address"
        },
        {
          "indexed": false,
          "internalType": "enum Types.KycStatus",
          "name": "status",
          "type": "uint8"
        }
      ],
      "name": "KycStatusChanged",
      "type": "event"
    },
    {
      "inputs": [
        {
          "internalType": "uint256",
          "name": "pageNumber",
          "type": "uint256"
        }
      ],
      "name": "getAllBanks",
      "outputs": [
        {
          "internalType": "uint256",
          "name": "totalPages",
          "type": "uint256"
        },
        {
          "components": [
            {
              "internalType": "string",
              "name": "name",
              "type": "string"
            },
            {
              "internalType": "string",
              "name": "email",
              "type": "string"
            },
            {
              "internalType": "address",
              "name": "id_",
              "type": "address"
            },
            {
              "internalType": "string",
              "name": "ifscCode",
              "type": "string"
            },
            {
              "internalType": "uint16",
              "name": "kycCount",
              "type": "uint16"
            },
            {
              "internalType": "enum Types.BankStatus",
              "name": "status",
              "type": "uint8"
            }
          ],
          "internalType": "struct Types.Bank[]",
          "name": "",
          "type": "tuple[]"
        }
      ],
      "stateMutability": "view",
      "type": "function",
      "constant": true
    },
    {
      "inputs": [
        {
          "components": [
            {
              "internalType": "string",
              "name": "name",
              "type": "string"
            },
            {
              "internalType": "string",
              "name": "email",
              "type": "string"
            },
            {
              "internalType": "address",
              "name": "id_",
              "type": "address"
            },
            {
              "internalType": "string",
              "name": "ifscCode",
              "type": "string"
            },
            {
              "internalType": "uint16",
              "name": "kycCount",
              "type": "uint16"
            },
            {
              "internalType": "enum Types.BankStatus",
              "name": "status",
              "type": "uint8"
            }
          ],
          "internalType": "struct Types.Bank",
          "name": "bank_",
          "type": "tuple"
        }
      ],
      "name": "addBank",
      "outputs": [],
      "stateMutability": "nonpayable",
      "type": "function"
    },
    {
      "inputs": [
        {
          "internalType": "address",
          "name": "id_",
          "type": "address"
        },
        {
          "internalType": "string",
          "name": "email_",
          "type": "string"
        },
        {
          "internalType": "string",
          "name": "name_",
          "type": "string"
        }
      ],
      "name": "updateBankDetails",
      "outputs": [],
      "stateMutability": "nonpayable",
      "type": "function"
    },
    {
      "inputs": [
        {
          "internalType": "address",
          "name": "id_",
          "type": "address"
        },
        {
          "internalType": "bool",
          "name": "makeActive_",
          "type": "bool"
        }
      ],
      "name": "activateDeactivateBank",
      "outputs": [],
      "stateMutability": "nonpayable",
      "type": "function"
    },
    {
      "inputs": [
        {
          "internalType": "uint256",
          "name": "pageNumber",
          "type": "uint256"
        }
      ],
      "name": "getCustomersOfBank",
      "outputs": [
        {
          "internalType": "uint256",
          "name": "totalPages",
          "type": "uint256"
        },
        {
          "components": [
            {
              "internalType": "string",
              "name": "id_",
              "type": "string"
            },
            {
              "internalType": "address",
              "name": "userId_",
              "type": "address"
            },
            {
              "internalType": "string",
              "name": "customerName",
              "type": "string"
            },
            {
              "internalType": "address",
              "name": "bankId_",
              "type": "address"
            },
            {
              "internalType": "string",
              "name": "bankName",
              "type": "string"
            },
            {
              "internalType": "string",
              "name": "dataHash",
              "type": "string"
            },
            {
              "internalType": "uint256",
              "name": "updatedOn",
              "type": "uint256"
            },
            {
              "internalType": "enum Types.KycStatus",
              "name": "status",
              "type": "uint8"
            },
            {
              "internalType": "enum Types.DataHashStatus",
              "name": "dataRequest",
              "type": "uint8"
            },
            {
              "internalType": "string",
              "name": "additionalNotes",
              "type": "string"
            }
          ],
          "internalType": "struct Types.KycRequest[]",
          "name": "",
          "type": "tuple[]"
        }
      ],
      "stateMutability": "view",
      "type": "function",
      "constant": true
    },
    {
      "inputs": [
        {
          "components": [
            {
              "internalType": "string",
              "name": "name",
              "type": "string"
            },
            {
              "internalType": "string",
              "name": "email",
              "type": "string"
            },
            {
              "internalType": "uint256",
              "name": "mobileNumber",
              "type": "uint256"
            },
            {
              "internalType": "address",
              "name": "id_",
              "type": "address"
            },
            {
              "internalType": "address",
              "name": "kycVerifiedBy",
              "type": "address"
            },
            {
              "internalType": "string",
              "name": "dataHash",
              "type": "string"
            },
            {
              "internalType": "uint256",
              "name": "dataUpdatedOn",
              "type": "uint256"
            }
          ],
          "internalType": "struct Types.Customer",
          "name": "customer_",
          "type": "tuple"
        },
        {
          "internalType": "uint256",
          "name": "currentTime_",
          "type": "uint256"
        },
        {
          "internalType": "string",
          "name": "notes_",
          "type": "string"
        }
      ],
      "name": "addKycRequest",
      "outputs": [],
      "stateMutability": "nonpayable",
      "type": "function"
    },
    {
      "inputs": [
        {
          "internalType": "address",
          "name": "id_",
          "type": "address"
        },
        {
          "internalType": "string",
          "name": "notes_",
          "type": "string"
        }
      ],
      "name": "reRequestForKycRequest",
      "outputs": [],
      "stateMutability": "nonpayable",
      "type": "function"
    },
    {
      "inputs": [
        {
          "internalType": "address",
          "name": "userId_",
          "type": "address"
        },
        {
          "internalType": "bool",
          "name": "verified_",
          "type": "bool"
        },
        {
          "internalType": "string",
          "name": "note_",
          "type": "string"
        }
      ],
      "name": "updateKycVerification",
      "outputs": [],
      "stateMutability": "nonpayable",
      "type": "function"
    },
    {
      "inputs": [
        {
          "internalType": "address",
          "name": "id_",
          "type": "address"
        }
      ],
      "name": "searchCustomers",
      "outputs": [
        {
          "internalType": "bool",
          "name": "",
          "type": "bool"
        },
        {
          "components": [
            {
              "internalType": "string",
              "name": "name",
              "type": "string"
            },
            {
              "internalType": "string",
              "name": "email",
              "type": "string"
            },
            {
              "internalType": "uint256",
              "name": "mobileNumber",
              "type": "uint256"
            },
            {
              "internalType": "address",
              "name": "id_",
              "type": "address"
            },
            {
              "internalType": "address",
              "name": "kycVerifiedBy",
              "type": "address"
            },
            {
              "internalType": "string",
              "name": "dataHash",
              "type": "string"
            },
            {
              "internalType": "uint256",
              "name": "dataUpdatedOn",
              "type": "uint256"
            }
          ],
          "internalType": "struct Types.Customer",
          "name": "",
          "type": "tuple"
        },
        {
          "components": [
            {
              "internalType": "string",
              "name": "id_",
              "type": "string"
            },
            {
              "internalType": "address",
              "name": "userId_",
              "type": "address"
            },
            {
              "internalType": "string",
              "name": "customerName",
              "type": "string"
            },
            {
              "internalType": "address",
              "name": "bankId_",
              "type": "address"
            },
            {
              "internalType": "string",
              "name": "bankName",
              "type": "string"
            },
            {
              "internalType": "string",
              "name": "dataHash",
              "type": "string"
            },
            {
              "internalType": "uint256",
              "name": "updatedOn",
              "type": "uint256"
            },
            {
              "internalType": "enum Types.KycStatus",
              "name": "status",
              "type": "uint8"
            },
            {
              "internalType": "enum Types.DataHashStatus",
              "name": "dataRequest",
              "type": "uint8"
            },
            {
              "internalType": "string",
              "name": "additionalNotes",
              "type": "string"
            }
          ],
          "internalType": "struct Types.KycRequest",
          "name": "",
          "type": "tuple"
        }
      ],
      "stateMutability": "view",
      "type": "function",
      "constant": true
    },
    {
      "inputs": [
        {
          "internalType": "uint256",
          "name": "pageNumber",
          "type": "uint256"
        }
      ],
      "name": "getBankRequests",
      "outputs": [
        {
          "internalType": "uint256",
          "name": "totalPages",
          "type": "uint256"
        },
        {
          "components": [
            {
              "internalType": "string",
              "name": "id_",
              "type": "string"
            },
            {
              "internalType": "address",
              "name": "userId_",
              "type": "address"
            },
            {
              "internalType": "string",
              "name": "customerName",
              "type": "string"
            },
            {
              "internalType": "address",
              "name": "bankId_",
              "type": "address"
            },
            {
              "internalType": "string",
              "name": "bankName",
              "type": "string"
            },
            {
              "internalType": "string",
              "name": "dataHash",
              "type": "string"
            },
            {
              "internalType": "uint256",
              "name": "updatedOn",
              "type": "uint256"
            },
            {
              "internalType": "enum Types.KycStatus",
              "name": "status",
              "type": "uint8"
            },
            {
              "internalType": "enum Types.DataHashStatus",
              "name": "dataRequest",
              "type": "uint8"
            },
            {
              "internalType": "string",
              "name": "additionalNotes",
              "type": "string"
            }
          ],
          "internalType": "struct Types.KycRequest[]",
          "name": "",
          "type": "tuple[]"
        }
      ],
      "stateMutability": "view",
      "type": "function",
      "constant": true
    },
    {
      "inputs": [
        {
          "internalType": "address",
          "name": "bankId_",
          "type": "address"
        },
        {
          "internalType": "bool",
          "name": "approve_",
          "type": "bool"
        },
        {
          "internalType": "string",
          "name": "note_",
          "type": "string"
        }
      ],
      "name": "actionOnKycRequest",
      "outputs": [],
      "stateMutability": "nonpayable",
      "type": "function"
    },
    {
      "inputs": [
        {
          "internalType": "string",
          "name": "name_",
          "type": "string"
        },
        {
          "internalType": "string",
          "name": "email_",
          "type": "string"
        },
        {
          "internalType": "uint256",
          "name": "mobile_",
          "type": "uint256"
        }
      ],
      "name": "updateProfile",
      "outputs": [],
      "stateMutability": "nonpayable",
      "type": "function"
    },
    {
      "inputs": [
        {
          "internalType": "string",
          "name": "hash_",
          "type": "string"
        },
        {
          "internalType": "uint256",
          "name": "currentTime_",
          "type": "uint256"
        }
      ],
      "name": "updateDatahash",
      "outputs": [],
      "stateMutability": "nonpayable",
      "type": "function"
    },
    {
      "inputs": [
        {
          "internalType": "address",
          "name": "bankId_",
          "type": "address"
        },
        {
          "internalType": "string",
          "name": "notes_",
          "type": "string"
        }
      ],
      "name": "removerDatahashPermission",
      "outputs": [],
      "stateMutability": "nonpayable",
      "type": "function"
    },
    {
      "inputs": [
        {
          "internalType": "address",
          "name": "bankId_",
          "type": "address"
        }
      ],
      "name": "searchBanks",
      "outputs": [
        {
          "internalType": "bool",
          "name": "",
          "type": "bool"
        },
        {
          "components": [
            {
              "internalType": "string",
              "name": "name",
              "type": "string"
            },
            {
              "internalType": "string",
              "name": "email",
              "type": "string"
            },
            {
              "internalType": "address",
              "name": "id_",
              "type": "address"
            },
            {
              "internalType": "string",
              "name": "ifscCode",
              "type": "string"
            },
            {
              "internalType": "uint16",
              "name": "kycCount",
              "type": "uint16"
            },
            {
              "internalType": "enum Types.BankStatus",
              "name": "status",
              "type": "uint8"
            }
          ],
          "internalType": "struct Types.Bank",
          "name": "",
          "type": "tuple"
        },
        {
          "components": [
            {
              "internalType": "string",
              "name": "id_",
              "type": "string"
            },
            {
              "internalType": "address",
              "name": "userId_",
              "type": "address"
            },
            {
              "internalType": "string",
              "name": "customerName",
              "type": "string"
            },
            {
              "internalType": "address",
              "name": "bankId_",
              "type": "address"
            },
            {
              "internalType": "string",
              "name": "bankName",
              "type": "string"
            },
            {
              "internalType": "string",
              "name": "dataHash",
              "type": "string"
            },
            {
              "internalType": "uint256",
              "name": "updatedOn",
              "type": "uint256"
            },
            {
              "internalType": "enum Types.KycStatus",
              "name": "status",
              "type": "uint8"
            },
            {
              "internalType": "enum Types.DataHashStatus",
              "name": "dataRequest",
              "type": "uint8"
            },
            {
              "internalType": "string",
              "name": "additionalNotes",
              "type": "string"
            }
          ],
          "internalType": "struct Types.KycRequest",
          "name": "",
          "type": "tuple"
        }
      ],
      "stateMutability": "view",
      "type": "function",
      "constant": true
    },
    {
      "inputs": [],
      "name": "whoAmI",
      "outputs": [
        {
          "components": [
            {
              "internalType": "string",
              "name": "name",
              "type": "string"
            },
            {
              "internalType": "string",
              "name": "email",
              "type": "string"
            },
            {
              "internalType": "address",
              "name": "id_",
              "type": "address"
            },
            {
              "internalType": "enum Types.Role",
              "name": "role",
              "type": "uint8"
            },
            {
              "internalType": "enum Types.BankStatus",
              "name": "status",
              "type": "uint8"
            }
          ],
          "internalType": "struct Types.User",
          "name": "",
          "type": "tuple"
        }
      ],
      "stateMutability": "view",
      "type": "function",
      "constant": true
    },
    {
      "inputs": [
        {
          "internalType": "address",
          "name": "id_",
          "type": "address"
        }
      ],
      "name": "getCustomerDetails",
      "outputs": [
        {
          "components": [
            {
              "internalType": "string",
              "name": "name",
              "type": "string"
            },
            {
              "internalType": "string",
              "name": "email",
              "type": "string"
            },
            {
              "internalType": "uint256",
              "name": "mobileNumber",
              "type": "uint256"
            },
            {
              "internalType": "address",
              "name": "id_",
              "type": "address"
            },
            {
              "internalType": "address",
              "name": "kycVerifiedBy",
              "type": "address"
            },
            {
              "internalType": "string",
              "name": "dataHash",
              "type": "string"
            },
            {
              "internalType": "uint256",
              "name": "dataUpdatedOn",
              "type": "uint256"
            }
          ],
          "internalType": "struct Types.Customer",
          "name": "",
          "type": "tuple"
        }
      ],
      "stateMutability": "view",
      "type": "function",
      "constant": true
    },
    {
      "inputs": [
        {
          "internalType": "address",
          "name": "id_",
          "type": "address"
        }
      ],
      "name": "getBankDetails",
      "outputs": [
        {
          "components": [
            {
              "internalType": "string",
              "name": "name",
              "type": "string"
            },
            {
              "internalType": "string",
              "name": "email",
              "type": "string"
            },
            {
              "internalType": "address",
              "name": "id_",
              "type": "address"
            },
            {
              "internalType": "string",
              "name": "ifscCode",
              "type": "string"
            },
            {
              "internalType": "uint16",
              "name": "kycCount",
              "type": "uint16"
            },
            {
              "internalType": "enum Types.BankStatus",
              "name": "status",
              "type": "uint8"
            }
          ],
          "internalType": "struct Types.Bank",
          "name": "",
          "type": "tuple"
        }
      ],
      "stateMutability": "view",
      "type": "function",
      "constant": true
    }
  ],
  "bytecode": "0x60806040523480156200001157600080fd5b5060405162005b9638038062005b9683398101604081905262000034916200034d565b60048054600160a060020a031916339081179091556040805160a081018252848152602080820185905281830184905260006060830181905260808301819052938452600681529190922082518051849362000095928492910190620001c1565b506020828101518051620000b09260018501920190620001c1565b50604082015160028083018054600160a060020a03909316600160a060020a03198416811782556060860151939192600160a860020a0319909216179074010000000000000000000000000000000000000000908490811115620001185762000118620003b7565b0217905550608082015160028201805460a860020a60ff02191675010000000000000000000000000000000000000000008360018111156200015e576200015e620003b7565b021790555050600454600580546001810182556000919091527f036b6384b5eca791c62761152d0c79bb0604c104a5fb6f4eb0703f3154bb3db0018054600160a060020a031916600160a060020a03909216919091179055506200043b92505050565b828054620001cf90620003e6565b90600052602060002090601f016020900481019282620001f357600085556200023e565b82601f106200020e57805160ff19168380011785556200023e565b828001600101855582156200023e579182015b828111156200023e57825182559160200191906001019062000221565b506200024c92915062000250565b5090565b5b808211156200024c576000815560010162000251565b7f4e487b7100000000000000000000000000000000000000000000000000000000600052604160045260246000fd5b600082601f830112620002a857600080fd5b81516001604060020a0380821115620002c557620002c562000267565b604051601f8301601f19908116603f01168101908282118183101715620002f057620002f062000267565b816040528381526020925086838588010111156200030d57600080fd5b600091505b8382101562000331578582018301518183018401529082019062000312565b83821115620003435760008385830101525b9695505050505050565b600080604083850312156200036157600080fd5b82516001604060020a03808211156200037957600080fd5b620003878683870162000296565b935060208501519150808211156200039e57600080fd5b50620003ad8582860162000296565b9150509250929050565b7f4e487b7100000000000000000000000000000000000000000000000000000000600052602160045260246000fd5b600281046001821680620003fb57607f821691505b60208210810362000435577f4e487b7100000000000000000000000000000000000000000000000000000000600052602260045260246000fd5b50919050565b61574b806200044b6000396000f3fe608060405234801561001057600080fd5b5060043610610133576000357c0100000000000000000000000000000000000000000000000000000000900480635f4d6ddf116100bf578063b374a7dd1161008e578063b374a7dd14610280578063baa2b9fd14610293578063da91254c146102b4578063dbc671d0146102c9578063dc57d07e146102dc57600080fd5b80635f4d6ddf1461022557806377fa069c146102475780637c1d61971461025a5780638915fb0c1461026d57600080fd5b80632ce23acb116101065780632ce23acb146101a957806334b52411146101cb578063369ba32b146101de5780633f2c0e96146101f15780634d82d8e81461020457600080fd5b80630c60f83d1461013857806315101e02146101615780631bdd5a0f146101815780632283db9c14610196575b600080fd5b61014b6101463660046148d9565b6102ef565b60405161015891906149df565b60405180910390f35b61017461016f3660046148d9565b610458565b6040516101589190614aa5565b61019461018f366004614baa565b610540565b005b6101946101a4366004614c19565b6107cd565b6101bc6101b73660046148d9565b61099b565b60405161015893929190614e0e565b6101946101d9366004614e4b565b610fcf565b6101946101ec366004614ea9565b61128a565b6101946101ff366004614baa565b611321565b610217610212366004614f13565b6114e2565b604051610158929190614f2c565b6102386102333660046148d9565b611527565b60405161015893929190614f95565b610194610255366004614fb0565b611b10565b6101946102683660046150b4565b6120b5565b61019461027b366004615121565b6121b1565b61019461028e366004615166565b61242c565b6102a66102a1366004614f13565b6124cb565b604051610158929190615199565b6102bc6125b8565b60405161015891906151f4565b6102a66102d7366004614f13565b61281f565b6101946102ea366004614e4b565b6128d8565b6102f76146ea565b81600160a060020a03811661032a5760405160e560020a62461bcd0281526004016103219061526a565b60405180910390fd5b600160a060020a03818116600090815260016020526040902060030154166103675760405160e560020a62461bcd028152600401610321906152a1565b600160a060020a03811660009081526001602081905260409091200180546104269190610393906152d8565b80601f01602080910402602001604051908101604052809291908181526020018280546103bf906152d8565b801561040c5780601f106103e15761010080835404028352916020019161040c565b820191906000526020600020905b8154815290600101906020018083116103ef57829003601f168201915b505050505060405180602001604052806000815250612af4565b156104465760405160e560020a62461bcd0281526004016103219061530f565b61044f83612b4e565b91505b50919050565b610460614739565b600160a060020a0380831660009081526003602052604090206002015483911661049f5760405160e560020a62461bcd02815260040161032190615346565b600160a060020a03808216600081815260036020526040902060020154909116146104df5760405160e560020a62461bcd02815260040161032190615346565b6000600160a060020a03821660009081526003602052604090206004015462010000900460ff166001811115610517576105176149f2565b146105375760405160e560020a62461bcd0281526004016103219061537d565b61044f83612d6d565b33600081815260036020526040902060020154600160a060020a031661057b5760405160e560020a62461bcd02815260040161032190615346565b600160a060020a03808216600081815260036020526040902060020154909116146105bb5760405160e560020a62461bcd02815260040161032190615346565b6000600160a060020a03821660009081526003602052604090206004015462010000900460ff1660018111156105f3576105f36149f2565b146106135760405160e560020a62461bcd0281526004016103219061537d565b600061061f3385613005565b905061062a8161304d565b6106795760405160e560020a62461bcd02815260206004820152601160248201527f4b594320726571206e6f7420666f756e640000000000000000000000000000006044820152606401610321565b61068284613169565b6106d15760405160e560020a62461bcd02815260206004820152600e60248201527f55736572206e6f7420666f756e640000000000000000000000000000000000006044820152606401610321565b60006007826040516106e391906153b4565b908152604051908190036020019020600701805461ff001916610100836002811115610711576107116149f2565b02179055508260078260405161072791906153b4565b9081526020016040518091039020600801908051906020019061074b92919061476b565b507f524a348eaa0159a5bd9d05667fe8d01e3fef50369ae5f27c2ade107c84bfeaf78160078360405161077e91906153b4565b908152602001604051809103902060040160078460405161079f91906153b4565b90815260200160405180910390206002016040516107bf93929190615472565b60405180910390a150505050565b600454600160a060020a031633146107fa5760405160e560020a62461bcd028152600401610321906154ab565b61080381613227565b6040805160a08101825282518152602080840151818301528383018051600160a060020a039081168486015260016060850152600060808501819052915116815260068252929092208151805192939192610861928492019061476b565b50602082810151805161087a926001850192019061476b565b50604082015160028083018054600160a060020a03909316600160a060020a0319841681178255606086015193919274ffffffffffffffffffffffffffffffffffffffffff199092161790740100000000000000000000000000000000000000009084908111156108ed576108ed6149f2565b0217905550608082015160028201805475ff0000000000000000000000000000000000000000001916750100000000000000000000000000000000000000000083600181111561093f5761093f6149f2565b0217905550505060400151600580546001810182556000919091527f036b6384b5eca791c62761152d0c79bb0604c104a5fb6f4eb0703f3154bb3db0018054600160a060020a031916600160a060020a03909216919091179055565b60006109a5614739565b6109ad6147ef565b33806109ce5760405160e560020a62461bcd0281526004016103219061526a565b600160a060020a0381811660009081526001602052604090206003015416610a0b5760405160e560020a62461bcd028152600401610321906152a1565b600160a060020a0381166000908152600160208190526040909120018054610a379190610393906152d8565b15610a575760405160e560020a62461bcd0281526004016103219061530f565b600160a060020a03808616600090815260036020526040902060020154869116610a965760405160e560020a62461bcd02815260040161032190615346565b600160a060020a0380821660008181526003602052604090206002015490911614610ad65760405160e560020a62461bcd02815260040161032190615346565b6000600160a060020a03821660009081526003602052604090206004015462010000900460ff166001811115610b0e57610b0e6149f2565b14610b2e5760405160e560020a62461bcd0281526004016103219061537d565b6000610b38614739565b610b406147ef565b33600090815260096020908152604080832080548251818502810185019093528083529192909190830182828015610ba157602002820191906000526020600020905b8154600160a060020a03168152600190910190602001808311610b83575b5050505050905060005b8151811015610fbf578a600160a060020a0316828281518110610bd057610bd06154e2565b6020026020010151600160a060020a031603610fad5760019450610bf38b612d6d565b93506007610c018c33613005565b604051610c0e91906153b4565b908152602001604051809103902060405180610140016040529081600082018054610c38906152d8565b80601f0160208091040260200160405190810160405280929190818152602001828054610c64906152d8565b8015610cb15780601f10610c8657610100808354040283529160200191610cb1565b820191906000526020600020905b815481529060010190602001808311610c9457829003601f168201915b50505091835250506001820154600160a060020a03166020820152600282018054604090920191610ce1906152d8565b80601f0160208091040260200160405190810160405280929190818152602001828054610d0d906152d8565b8015610d5a5780601f10610d2f57610100808354040283529160200191610d5a565b820191906000526020600020905b815481529060010190602001808311610d3d57829003601f168201915b50505091835250506003820154600160a060020a03166020820152600482018054604090920191610d8a906152d8565b80601f0160208091040260200160405190810160405280929190818152602001828054610db6906152d8565b8015610e035780601f10610dd857610100808354040283529160200191610e03565b820191906000526020600020905b815481529060010190602001808311610de657829003601f168201915b50505050508152602001600582018054610e1c906152d8565b80601f0160208091040260200160405190810160405280929190818152602001828054610e48906152d8565b8015610e955780601f10610e6a57610100808354040283529160200191610e95565b820191906000526020600020905b815481529060010190602001808311610e7857829003601f168201915b505050918352505060068201546020820152600782015460409091019060ff166002811115610ec657610ec66149f2565b6002811115610ed757610ed76149f2565b81526020016007820160019054906101000a900460ff166002811115610eff57610eff6149f2565b6002811115610f1057610f106149f2565b8152602001600882018054610f24906152d8565b80601f0160208091040260200160405190810160405280929190818152602001828054610f50906152d8565b8015610f9d5780601f10610f7257610100808354040283529160200191610f9d565b820191906000526020600020905b815481529060010190602001808311610f8057829003601f168201915b5050505050815250509250610fbf565b80610fb781615514565b915050610bab565b5092999198509650945050505050565b3380610ff05760405160e560020a62461bcd0281526004016103219061526a565b600160a060020a038181166000908152600160205260409020600301541661102d5760405160e560020a62461bcd028152600401610321906152a1565b600160a060020a03811660009081526001602081905260409091200180546110599190610393906152d8565b156110795760405160e560020a62461bcd0281526004016103219061530f565b600160a060020a038085166000908152600360205260409020600201548591166110b85760405160e560020a62461bcd02815260040161032190615346565b600160a060020a03808216600081815260036020526040902060020154909116146110f85760405160e560020a62461bcd02815260040161032190615346565b6000600160a060020a03821660009081526003602052604090206004015462010000900460ff166001811115611130576111306149f2565b146111505760405160e560020a62461bcd0281526004016103219061537d565b600061115c8633613005565b90506111678161304d565b6111b65760405160e560020a62461bcd02815260206004820152601960248201527f5573657220646f65736e27742068617665204b594320726571000000000000006044820152606401610321565b600085156111c6575060016111ca565b5060025b806007836040516111db91906153b4565b908152604051908190036020019020600701805461ff001916610100836002811115611209576112096149f2565b02179055508460078360405161121f91906153b4565b9081526020016040518091039020600801908051906020019061124392919061476b565b507f9a3f3f9de5ac964f84f08c6124f7b844ffd73de3fd4b472eb59f6b68e5729a8182338984604051611279949392919061552d565b60405180910390a150505050505050565b600454600160a060020a031633146112b75760405160e560020a62461bcd028152600401610321906154ab565b6112c283838361340c565b600160a060020a038316600090815260066020908152604090912082516112eb9284019061476b565b50600160a060020a0383166000908152600660209081526040909120835161131b9260019092019185019061476b565b50505050565b33806113425760405160e560020a62461bcd0281526004016103219061526a565b600160a060020a038181166000908152600160205260409020600301541661137f5760405160e560020a62461bcd028152600401610321906152a1565b600160a060020a03811660009081526001602081905260409091200180546113ab9190610393906152d8565b156113cb5760405160e560020a62461bcd0281526004016103219061530f565b60006113d78433613005565b90506113e28161304d565b6114315760405160e560020a62461bcd02815260206004820152601460248201527f5065726d697373696f6e206e6f7420666f756e640000000000000000000000006044820152606401610321565b600260078260405161144391906153b4565b908152604051908190036020019020600701805461ff001916610100836002811115611471576114716149f2565b02179055508260078260405161148791906153b4565b908152602001604051809103902060080190805190602001906114ab92919061476b565b507f9a3f3f9de5ac964f84f08c6124f7b844ffd73de3fd4b472eb59f6b68e5729a8181338660026040516107bf949392919061552d565b600454600090606090600160a060020a031633146115155760405160e560020a62461bcd028152600401610321906154ab565b61151e836134e3565b91509150915091565b60006115316146ea565b6115396147ef565b83600160a060020a0381166115635760405160e560020a62461bcd0281526004016103219061526a565b600160a060020a03818116600090815260016020526040902060030154166115a05760405160e560020a62461bcd028152600401610321906152a1565b600160a060020a03811660009081526001602081905260409091200180546115cc9190610393906152d8565b156115ec5760405160e560020a62461bcd0281526004016103219061530f565b33600081815260036020526040902060020154600160a060020a03166116275760405160e560020a62461bcd02815260040161032190615346565b600160a060020a03808216600081815260036020526040902060020154909116146116675760405160e560020a62461bcd02815260040161032190615346565b6000600160a060020a03821660009081526003602052604090206004015462010000900460ff16600181111561169f5761169f6149f2565b146116bf5760405160e560020a62461bcd0281526004016103219061537d565b60006116c96146ea565b6116d16147ef565b336000908152600860209081526040918290208054835181840281018401909452808452611742938d939092919083018282801561173857602002820191906000526020600020905b8154600160a060020a0316815260019091019060200180831161171a575b50505050506138c8565b90935091508215611b01576007611759338b613005565b60405161176691906153b4565b908152602001604051809103902060405180610140016040529081600082018054611790906152d8565b80601f01602080910402602001604051908101604052809291908181526020018280546117bc906152d8565b80156118095780601f106117de57610100808354040283529160200191611809565b820191906000526020600020905b8154815290600101906020018083116117ec57829003601f168201915b50505091835250506001820154600160a060020a03166020820152600282018054604090920191611839906152d8565b80601f0160208091040260200160405190810160405280929190818152602001828054611865906152d8565b80156118b25780601f10611887576101008083540402835291602001916118b2565b820191906000526020600020905b81548152906001019060200180831161189557829003601f168201915b50505091835250506003820154600160a060020a031660208201526004820180546040909201916118e2906152d8565b80601f016020809104026020016040519081016040528092919081815260200182805461190e906152d8565b801561195b5780601f106119305761010080835404028352916020019161195b565b820191906000526020600020905b81548152906001019060200180831161193e57829003601f168201915b50505050508152602001600582018054611974906152d8565b80601f01602080910402602001604051908101604052809291908181526020018280546119a0906152d8565b80156119ed5780601f106119c2576101008083540402835291602001916119ed565b820191906000526020600020905b8154815290600101906020018083116119d057829003601f168201915b505050918352505060068201546020820152600782015460409091019060ff166002811115611a1e57611a1e6149f2565b6002811115611a2f57611a2f6149f2565b81526020016007820160019054906101000a900460ff166002811115611a5757611a576149f2565b6002811115611a6857611a686149f2565b8152602001600882018054611a7c906152d8565b80601f0160208091040260200160405190810160405280929190818152602001828054611aa8906152d8565b8015611af55780601f10611aca57610100808354040283529160200191611af5565b820191906000526020600020905b815481529060010190602001808311611ad857829003601f168201915b50505050508152505090505b91989097509095509350505050565b33600081815260036020526040902060020154600160a060020a0316611b4b5760405160e560020a62461bcd02815260040161032190615346565b600160a060020a0380821660008181526003602052604090206002015490911614611b8b5760405160e560020a62461bcd02815260040161032190615346565b6000600160a060020a03821660009081526003602052604090206004015462010000900460ff166001811115611bc357611bc36149f2565b14611be35760405160e560020a62461bcd0281526004016103219061537d565b6000611bf3338660600151613005565b9050611bfe8161304d565b15611c4e5760405160e560020a62461bcd02815260206004820152601160248201527f5573657220686164206b7963207265712e0000000000000000000000000000006044820152606401610321565b6040518061014001604052808281526020018660600151600160a060020a031681526020018660000151815260200133600160a060020a03168152602001611c9533612d6d565b51815260a0870151602082015260408101869052606001600081526020016000815260200184815250600782604051611cce91906153b4565b90815260200160405180910390206000820151816000019080519060200190611cf892919061476b565b50602082810151600183018054600160a060020a031916600160a060020a0390921691909117905560408301518051611d37926002850192019061476b565b506060820151600382018054600160a060020a031916600160a060020a0390921691909117905560808201518051611d7991600484019160209091019061476b565b5060a08201518051611d9591600584019160209091019061476b565b5060c0820151600682015560e082015160078201805460ff19166001836002811115611dc357611dc36149f2565b0217905550610100828101516007830180549192909161ff00191690836002811115611df157611df16149f2565b02179055506101208201518051611e1291600884019160209091019061476b565b505033600081815260086020908152604080832060608b018051825460018181018555938752858720018054600160a060020a03928316600160a060020a031991821617909155915116855260098452828520805492830181558552929093209092018054909116909217909155517f1c9ca7942139211bfb75ec030ee95c38e96f4eb7d755b28d3eede55f8d5eb86d91508290600790611eb49083906153b4565b9081526040519081900360200181208851611ed59392600490920191615571565b60405180910390a1611eea8560600151613169565b6120ae57611ef785613b61565b6040518060a0016040528086600001518152602001866020015181526020018660600151600160a060020a03168152602001600280811115611f3b57611f3b6149f2565b8152600060209182018190526060880151600160a060020a031681526006825260409020825180519192611f749284929091019061476b565b506020828101518051611f8d926001850192019061476b565b50604082015160028083018054600160a060020a03909316600160a060020a0319841681178255606086015193919274ffffffffffffffffffffffffffffffffffffffffff19909216179074010000000000000000000000000000000000000000908490811115612000576120006149f2565b0217905550608082015160028201805475ff00000000000000000000000000000000000000000019167501000000000000000000000000000000000000000000836001811115612052576120526149f2565b021790555050506060850151600580546001810182556000919091527f036b6384b5eca791c62761152d0c79bb0604c104a5fb6f4eb0703f3154bb3db0018054600160a060020a031916600160a060020a039092169190911790555b5050505050565b33806120d65760405160e560020a62461bcd0281526004016103219061526a565b600160a060020a03818116600090815260016020526040902060030154166121135760405160e560020a62461bcd028152600401610321906152a1565b600160a060020a038116600090815260016020819052604090912001805461213f9190610393906152d8565b1561215f5760405160e560020a62461bcd0281526004016103219061530f565b61216a848484613ca7565b336000908152600660209081526040909120855161218a9287019061476b565b5033600090815260066020908152604090912084516120ae9260019092019186019061476b565b33806121d25760405160e560020a62461bcd0281526004016103219061526a565b600160a060020a038181166000908152600160205260409020600301541661220f5760405160e560020a62461bcd028152600401610321906152a1565b600160a060020a038116600090815260016020819052604090912001805461223b9190610393906152d8565b1561225b5760405160e560020a62461bcd0281526004016103219061530f565b6122658383613d36565b336000908152600960209081526040808320805482518185028101850190935280835291929091908301828280156122c657602002820191906000526020600020905b8154600160a060020a031681526001909101906020018083116122a8575b5050505050905060005b81518110156120ae5760006122fe8383815181106122f0576122f06154e2565b602002602001015133613005565b90506123098161304d565b15612419578560078260405161231f91906153b4565b9081526020016040518091039020600501908051906020019061234392919061476b565b508460078260405161235591906153b4565b908152602001604051809103902060060181905550600060078260405161237c91906153b4565b908152604051908190036020019020600701805460ff191660018360028111156123a8576123a86149f2565b02179055506040518060400160405280601381526020017f5570646174656420616c6c206d7920646f6373000000000000000000000000008152506007826040516123f391906153b4565b9081526020016040518091039020600801908051906020019061241792919061476b565b505b508061242481615514565b9150506122d0565b600454600160a060020a031633146124595760405160e560020a62461bcd028152600401610321906154ab565b6124638282613db2565b600160a060020a0383166000908152600660205260409020600201805475ff000000000000000000000000000000000000000000191675010000000000000000000000000000000000000000008360018111156124c2576124c26149f2565b02179055505050565b336000818152600360205260408120600201549091606091600160a060020a031661250b5760405160e560020a62461bcd02815260040161032190615346565b600160a060020a038082166000818152600360205260409020600201549091161461254b5760405160e560020a62461bcd02815260040161032190615346565b6000600160a060020a03821660009081526003602052604090206004015462010000900460ff166001811115612583576125836149f2565b146125a35760405160e560020a62461bcd0281526004016103219061537d565b6125ae846001613f80565b9250925050915091565b6125c0614865565b336126105760405160e560020a62461bcd02815260206004820152600f60248201527f53656e64657220496420456d70747900000000000000000000000000000000006044820152606401610321565b33600090815260066020526040902060020154600160a060020a031661264b5760405160e560020a62461bcd028152600401610321906152a1565b3360009081526006602052604090819020815160a08101909252805482908290612674906152d8565b80601f01602080910402602001604051908101604052809291908181526020018280546126a0906152d8565b80156126ed5780601f106126c2576101008083540402835291602001916126ed565b820191906000526020600020905b8154815290600101906020018083116126d057829003601f168201915b50505050508152602001600182018054612706906152d8565b80601f0160208091040260200160405190810160405280929190818152602001828054612732906152d8565b801561277f5780601f106127545761010080835404028352916020019161277f565b820191906000526020600020905b81548152906001019060200180831161276257829003601f168201915b5050509183525050600282810154600160a060020a038116602084015260409092019174010000000000000000000000000000000000000000900460ff16908111156127cd576127cd6149f2565b60028111156127de576127de6149f2565b81526020016002820160159054906101000a900460ff166001811115612806576128066149f2565b6001811115612817576128176149f2565b905250919050565b6000606033806128445760405160e560020a62461bcd0281526004016103219061526a565b600160a060020a03818116600090815260016020526040902060030154166128815760405160e560020a62461bcd028152600401610321906152a1565b600160a060020a03811660009081526001602081905260409091200180546128ad9190610393906152d8565b156128cd5760405160e560020a62461bcd0281526004016103219061530f565b6125ae846000613f80565b33600081815260036020526040902060020154600160a060020a03166129135760405160e560020a62461bcd02815260040161032190615346565b600160a060020a03808216600081815260036020526040902060020154909116146129535760405160e560020a62461bcd02815260040161032190615346565b6000600160a060020a03821660009081526003602052604090206004015462010000900460ff16600181111561298b5761298b6149f2565b146129ab5760405160e560020a62461bcd0281526004016103219061537d565b60006129b73386613005565b90506129c28161304d565b612a115760405160e560020a62461bcd02815260206004820152601960248201527f5573657220646f65736e27742068617665204b594320726571000000000000006044820152606401610321565b60008415612a3357506001612a2533614553565b612a2e866145c5565b612a37565b5060025b80600783604051612a4891906153b4565b908152604051908190036020019020600701805460ff19166001836002811115612a7457612a746149f2565b021790555083600783604051612a8a91906153b4565b90815260200160405180910390206008019080519060200190612aae92919061476b565b507f900b83a690e29ff7d6e76e350983afea30403d6c47fe8ce52045fb20074c79a082873384604051612ae4949392919061552d565b60405180910390a1505050505050565b600081604051602001612b0791906153b4565b6040516020818303038152906040528051906020012083604051602001612b2e91906153b4565b604051602081830303815290604052805190602001201490505b92915050565b612b566146ea565b600160a060020a03821660009081526001602052604090819020815160e08101909252805482908290612b88906152d8565b80601f0160208091040260200160405190810160405280929190818152602001828054612bb4906152d8565b8015612c015780601f10612bd657610100808354040283529160200191612c01565b820191906000526020600020905b815481529060010190602001808311612be457829003601f168201915b50505050508152602001600182018054612c1a906152d8565b80601f0160208091040260200160405190810160405280929190818152602001828054612c46906152d8565b8015612c935780601f10612c6857610100808354040283529160200191612c93565b820191906000526020600020905b815481529060010190602001808311612c7657829003601f168201915b5050509183525050600282015460208201526003820154600160a060020a0390811660408301526004830154166060820152600582018054608090920191612cda906152d8565b80601f0160208091040260200160405190810160405280929190818152602001828054612d06906152d8565b8015612d535780601f10612d2857610100808354040283529160200191612d53565b820191906000526020600020905b815481529060010190602001808311612d3657829003601f168201915b505050505081526020016006820154815250509050919050565b612d75614739565b600160a060020a038216612dce5760405160e560020a62461bcd02815260206004820152600d60248201527f42616e6b20496420456d707479000000000000000000000000000000000000006044820152606401610321565b600160a060020a03821660009081526003602052604090819020815160c08101909252805482908290612e00906152d8565b80601f0160208091040260200160405190810160405280929190818152602001828054612e2c906152d8565b8015612e795780601f10612e4e57610100808354040283529160200191612e79565b820191906000526020600020905b815481529060010190602001808311612e5c57829003601f168201915b50505050508152602001600182018054612e92906152d8565b80601f0160208091040260200160405190810160405280929190818152602001828054612ebe906152d8565b8015612f0b5780601f10612ee057610100808354040283529160200191612f0b565b820191906000526020600020905b815481529060010190602001808311612eee57829003601f168201915b50505091835250506002820154600160a060020a03166020820152600382018054604090920191612f3b906152d8565b80601f0160208091040260200160405190810160405280929190818152602001828054612f67906152d8565b8015612fb45780601f10612f8957610100808354040283529160200191612fb4565b820191906000526020600020905b815481529060010190602001808311612f9757829003601f168201915b5050509183525050600482015461ffff8116602083015260409091019062010000900460ff166001811115612feb57612feb6149f2565b6001811115612ffc57612ffc6149f2565b90525092915050565b6040516c01000000000000000000000000600160a060020a03808516820260208401528316026034820152606090604801604051602081830303815290604052905092915050565b60006130688260405180602001604052806000815250612af4565b156130b85760405160e560020a62461bcd02815260206004820152601060248201527f5265717565737420496420656d707479000000000000000000000000000000006044820152606401610321565b612b486007836040516130cb91906153b4565b90815260405190819003602001902080546130e5906152d8565b80601f0160208091040260200160405190810160405280929190818152602001828054613111906152d8565b801561315e5780601f106131335761010080835404028352916020019161315e565b820191906000526020600020905b81548152906001019060200180831161314157829003601f168201915b505050505083612af4565b6000600160a060020a0382166131c45760405160e560020a62461bcd02815260206004820152600b60248201527f496420697320656d7074790000000000000000000000000000000000000000006044820152606401610321565b600160a060020a0382811660009081526001602052604090206003015416158015906132195750600160a060020a03821660009081526001602081905260409091200180546132179190610393906152d8565b155b15613222575060015b919050565b604080820151600160a060020a03908116600090815260036020529190912060020154161561329b5760405160e560020a62461bcd02815260206004820152600b60248201527f42616e6b206578697374730000000000000000000000000000000000000000006044820152606401610321565b604080820151600160a060020a03166000908152600360209081529190208251805184936132cd92849291019061476b565b5060208281015180516132e6926001850192019061476b565b506040820151600282018054600160a060020a031916600160a060020a039092169190911790556060820151805161332891600384019160209091019061476b565b50608082015160048201805461ffff90921661ffff1983168117825560a08501519262ffffff19161762010000836001811115613367576133676149f2565b0217905550505060408181018051600280546001810182556000919091527f405787fa12a823e0f2b7631cc41b3ba8828b3321ca811111fa75cd3aa3bb5ace018054600160a060020a031916600160a060020a039092169190911790555182516020840151606085015193517f17ee33cc6a54067d735ee1c9200fc0dc8354b1d7deae9908692bcd90723044b194613401949392916155aa565b60405180910390a150565b600160a060020a03838116600090815260036020526040902060020154166134495760405160e560020a62461bcd02815260040161032190615346565b600160a060020a038316600090815260036020908152604090912082516134729284019061476b565b50600160a060020a038316600090815260036020908152604090912083516134a29260019092019185019061476b565b507fc0e694475d9755514453a459373ded91f1517029faca54000da1c3007ec2c4f98382846040516134d6939291906155fd565b60405180910390a1505050565b600060606000831161353a5760405160e560020a62461bcd02815260206004820152601060248201527f504e2073686f756c64206265203e2030000000000000000000000000000000006044820152606401610321565b60025460009061354c9060199061564a565b6002549091506000906135619060199061565e565b90508115613577578061357381615514565b9150505b60196000613586600188615672565b613591906019615689565b905060006135a0886019615689565b9050838811156135b5575060009150816135d1565b83881480156135c45750600085115b156135d157506002548492505b60008367ffffffffffffffff8111156135ec576135ec614ab8565b60405190808252806020026020018201604052801561362557816020015b613612614739565b81526020019060019003908161360a5790505b509050825b828110156138b8576003600060028381548110613649576136496154e2565b6000918252602080832090910154600160a060020a031683528201929092526040908101909120815160c08101909252805482908290613688906152d8565b80601f01602080910402602001604051908101604052809291908181526020018280546136b4906152d8565b80156137015780601f106136d657610100808354040283529160200191613701565b820191906000526020600020905b8154815290600101906020018083116136e457829003601f168201915b5050505050815260200160018201805461371a906152d8565b80601f0160208091040260200160405190810160405280929190818152602001828054613746906152d8565b80156137935780601f1061376857610100808354040283529160200191613793565b820191906000526020600020905b81548152906001019060200180831161377657829003601f168201915b50505091835250506002820154600160a060020a031660208201526003820180546040909201916137c3906152d8565b80601f01602080910402602001604051908101604052809291908181526020018280546137ef906152d8565b801561383c5780601f106138115761010080835404028352916020019161383c565b820191906000526020600020905b81548152906001019060200180831161381f57829003601f168201915b5050509183525050600482015461ffff8116602083015260409091019062010000900460ff166001811115613873576138736149f2565b6001811115613884576138846149f2565b8152505082828151811061389a5761389a6154e2565b602002602001018190525080806138b090615514565b91505061362a565b5093989397509295505050505050565b60006138d26146ea565b60006138dc6146ea565b60005b8551811015613b555786600160a060020a0316868281518110613904576139046154e2565b6020026020010151600160a060020a031603613b4357600192506001600088600160a060020a0316600160a060020a031681526020019081526020016000206040518060e001604052908160008201805461395e906152d8565b80601f016020809104026020016040519081016040528092919081815260200182805461398a906152d8565b80156139d75780601f106139ac576101008083540402835291602001916139d7565b820191906000526020600020905b8154815290600101906020018083116139ba57829003601f168201915b505050505081526020016001820180546139f0906152d8565b80601f0160208091040260200160405190810160405280929190818152602001828054613a1c906152d8565b8015613a695780601f10613a3e57610100808354040283529160200191613a69565b820191906000526020600020905b815481529060010190602001808311613a4c57829003601f168201915b5050509183525050600282015460208201526003820154600160a060020a0390811660408301526004830154166060820152600582018054608090920191613ab0906152d8565b80601f0160208091040260200160405190810160405280929190818152602001828054613adc906152d8565b8015613b295780601f10613afe57610100808354040283529160200191613b29565b820191906000526020600020905b815481529060010190602001808311613b0c57829003601f168201915b505050505081526020016006820154815250509150613b55565b80613b4d81615514565b9150506138df565b50909590945092505050565b6060810151600160a060020a03166000908152600160209081526040909120825180518493613b9492849291019061476b565b506020828101518051613bad926001850192019061476b565b50604082015160028201556060820151600382018054600160a060020a03928316600160a060020a031991821617909155608084015160048401805491909316911617905560a08201518051613c0d91600584019160209091019061476b565b5060c09190910151600690910155606081018051600080546001810182559080527f290decd9548b62a8d60345a988386fc84ba6bc95484008f6362f93160ef3e563018054600160a060020a031916600160a060020a0390921691909117905551815160208301516040517f77eacb4962819f791ebd2750d7be9519622ddcf4c37fe09c6fd33ace5ce32ccb9361340193909290916155fd565b3360009081526001602090815260409091208451613cc79286019061476b565b503360009081526001602081815260409092208451613cee9391909201919085019061476b565b503360008181526001602052604090819020600201839055517fcfc84fa73e8500b1f994b7616fda16714aa77352defd398c17f8dda41cc92195916134d691869086906155fd565b3360009081526001602090815260409091208351613d5c9260059092019185019061476b565b5033600081815260016020526040908190206006810184905590517f844d9124dad5a413c4b99664397291f93f1e89513cd8c3a68674c050283c556192613da692909186906156a8565b60405180910390a15050565b600160a060020a03828116600090815260036020526040812060020154909116613df15760405160e560020a62461bcd02815260040161032190615346565b818015613e3357506001600160a060020a03841660009081526003602052604090206004015462010000900460ff166001811115613e3157613e316149f2565b145b15613ea057600160a060020a0383166000908152600360205260409081902060048101805462ff00001916905590517fbbb85d77e85c02977b28ba58175443b7d9c020551c53482ea6df5fe2e1cb884391613e90918691906156ca565b60405180910390a1506000612b48565b81158015613ee357506000600160a060020a03841660009081526003602052604090206004015462010000900460ff166001811115613ee157613ee16149f2565b145b15613f5557600160a060020a0383166000908152600360205260409081902060048101805462ff000019166201000017905590517fe2914c072e85a93716aea3154e8dc2a6d4f9a823930697852b892fe10bd598f891613f45918691906156ca565b60405180910390a1506001612b48565b50600160a060020a03821660009081526003602052604090206004015462010000900460ff16612b48565b6000606060008411613fd75760405160e560020a62461bcd02815260206004820152601360248201527f504e2073686f756c64206265203e207a65726f000000000000000000000000006044820152606401610321565b6000806000806140688888613ffa5733600090815260096020526040902061400a565b3360009081526008602052604090205b80548060200260200160405190810160405280929190818152602001828054801561405e57602002820191906000526020600020905b8154600160a060020a03168152600190910190602001808311614040575b505050505061464a565b935093509350935060008367ffffffffffffffff81111561408b5761408b614ab8565b6040519080825280602002602001820160405280156140c457816020015b6140b16147ef565b8152602001906001900390816140a95790505b509050825b828110156138b8578861413957336000908152600960205260409020805460079161411991849081106140fe576140fe6154e2565b600091825260209091200154600160a060020a031633613005565b60405161412691906153b4565b9081526020016040518091039020614199565b336000818152600860205260409020805460079261417d92909185908110614163576141636154e2565b600091825260209091200154600160a060020a0316613005565b60405161418a91906153b4565b90815260200160405180910390205b604051806101400160405290816000820180546141b5906152d8565b80601f01602080910402602001604051908101604052809291908181526020018280546141e1906152d8565b801561422e5780601f106142035761010080835404028352916020019161422e565b820191906000526020600020905b81548152906001019060200180831161421157829003601f168201915b50505091835250506001820154600160a060020a0316602082015260028201805460409092019161425e906152d8565b80601f016020809104026020016040519081016040528092919081815260200182805461428a906152d8565b80156142d75780601f106142ac576101008083540402835291602001916142d7565b820191906000526020600020905b8154815290600101906020018083116142ba57829003601f168201915b50505091835250506003820154600160a060020a03166020820152600482018054604090920191614307906152d8565b80601f0160208091040260200160405190810160405280929190818152602001828054614333906152d8565b80156143805780601f1061435557610100808354040283529160200191614380565b820191906000526020600020905b81548152906001019060200180831161436357829003601f168201915b50505050508152602001600582018054614399906152d8565b80601f01602080910402602001604051908101604052809291908181526020018280546143c5906152d8565b80156144125780601f106143e757610100808354040283529160200191614412565b820191906000526020600020905b8154815290600101906020018083116143f557829003601f168201915b505050918352505060068201546020820152600782015460409091019060ff166002811115614443576144436149f2565b6002811115614454576144546149f2565b81526020016007820160019054906101000a900460ff16600281111561447c5761447c6149f2565b600281111561448d5761448d6149f2565b81526020016008820180546144a1906152d8565b80601f01602080910402602001604051908101604052809291908181526020018280546144cd906152d8565b801561451a5780601f106144ef5761010080835404028352916020019161451a565b820191906000526020600020905b8154815290600101906020018083116144fd57829003601f168201915b505050505081525050828281518110614535576145356154e2565b6020026020010181905250808061454b90615514565b9150506140c9565b600160a060020a03811661457c5760405160e560020a62461bcd02815260040161032190615346565b600160a060020a0381166000908152600360205260408120600401805461ffff16916145a7836156f4565b91906101000a81548161ffff021916908361ffff1602179055505050565b600160a060020a03811661461e5760405160e560020a62461bcd02815260206004820152601160248201527f437573746f6d657220496420456d7074790000000000000000000000000000006044820152606401610321565b600160a060020a031660009081526001602052604090206004018054600160a060020a03191633179055565b600080600080600060198651614660919061564a565b905060198651614670919061565e565b94508015614686578461468281615514565b9550505b60199350614695600188615672565b6146a0906019615689565b92506146ad876019615689565b9150848711156146c45760009350600091506146e0565b84871480156146d35750600081115b156146e057809350855191505b5092959194509250565b6040518060e001604052806060815260200160608152602001600081526020016000600160a060020a031681526020016000600160a060020a0316815260200160608152602001600081525090565b6040805160c081018252606080825260208201819052600092820183905280820152608081018290529060a082015290565b828054614777906152d8565b90600052602060002090601f01602090048101928261479957600085556147df565b82601f106147b257805160ff19168380011785556147df565b828001600101855582156147df579182015b828111156147df5782518255916020019190600101906147c4565b506147eb9291506148ad565b5090565b604051806101400160405280606081526020016000600160a060020a03168152602001606081526020016000600160a060020a0316815260200160608152602001606081526020016000815260200160006002811115614851576148516149f2565b815260200160008152602001606081525090565b6040518060a0016040528060608152602001606081526020016000600160a060020a03168152602001600060028111156148a1576148a16149f2565b81526020016000905290565b5b808211156147eb57600081556001016148ae565b8035600160a060020a038116811461322257600080fd5b6000602082840312156148eb57600080fd5b6148f4826148c2565b9392505050565b60005b838110156149165781810151838201526020016148fe565b8381111561131b5750506000910152565b6000815180845261493f8160208601602086016148fb565b601f01601f19169290920160200192915050565b6000815160e0845261496860e0850182614927565b9050602083015184820360208601526149818282614927565b915050604083015160408501526060830151600160a060020a038082166060870152806080860151166080870152505060a083015184820360a08601526149c88282614927565b91505060c083015160c08501528091505092915050565b6020815260006148f46020830184614953565b60e060020a634e487b7102600052602160045260246000fd5b60028110614a1b57614a1b6149f2565b9052565b6000815160c08452614a3460c0850182614927565b905060208301518482036020860152614a4d8282614927565b915050600160a060020a03604084015116604085015260608301518482036060860152614a7a8282614927565b91505061ffff608084015116608085015260a0830151614a9d60a0860182614a0b565b509392505050565b6020815260006148f46020830184614a1f565b60e060020a634e487b7102600052604160045260246000fd5b60405160c0810167ffffffffffffffff81118282101715614af457614af4614ab8565b60405290565b60405160e0810167ffffffffffffffff81118282101715614af457614af4614ab8565b600082601f830112614b2e57600080fd5b813567ffffffffffffffff80821115614b4957614b49614ab8565b604051601f8301601f19908116603f01168101908282118183101715614b7157614b71614ab8565b81604052838152866020858801011115614b8a57600080fd5b836020870160208301376000602085830101528094505050505092915050565b60008060408385031215614bbd57600080fd5b614bc6836148c2565b9150602083013567ffffffffffffffff811115614be257600080fd5b614bee85828601614b1d565b9150509250929050565b803561ffff8116811461322257600080fd5b80356002811061322257600080fd5b600060208284031215614c2b57600080fd5b813567ffffffffffffffff80821115614c4357600080fd5b9083019060c08286031215614c5757600080fd5b614c5f614ad1565b823582811115614c6e57600080fd5b614c7a87828601614b1d565b825250602083013582811115614c8f57600080fd5b614c9b87828601614b1d565b602083015250614cad604084016148c2565b6040820152606083013582811115614cc457600080fd5b614cd087828601614b1d565b606083015250614ce260808401614bf8565b6080820152614cf360a08401614c0a565b60a082015295945050505050565b60038110614d1157614d116149f2565b50565b614a1b81614d01565b60006101408251818552614d3382860182614927565b9150506020830151614d506020860182600160a060020a03169052565b5060408301518482036040860152614d688282614927565b9150506060830151614d856060860182600160a060020a03169052565b5060808301518482036080860152614d9d8282614927565b91505060a083015184820360a0860152614db78282614927565b91505060c083015160c085015260e0830151614dd660e0860182614d14565b5061010080840151614dea82870182614d14565b50506101208084015185830382870152614e048382614927565b9695505050505050565b8315158152606060208201526000614e296060830185614a1f565b8281036040840152614e048185614d1d565b8035801515811461322257600080fd5b600080600060608486031215614e6057600080fd5b614e69846148c2565b9250614e7760208501614e3b565b9150604084013567ffffffffffffffff811115614e9357600080fd5b614e9f86828701614b1d565b9150509250925092565b600080600060608486031215614ebe57600080fd5b614ec7846148c2565b9250602084013567ffffffffffffffff80821115614ee457600080fd5b614ef087838801614b1d565b93506040860135915080821115614f0657600080fd5b50614e9f86828701614b1d565b600060208284031215614f2557600080fd5b5035919050565b60006040820184835260206040818501528185518084526060860191506060838202870101935082870160005b82811015614f8757605f19888703018452614f75868351614a1f565b95509284019290840190600101614f59565b509398975050505050505050565b8315158152606060208201526000614e296060830185614953565b600080600060608486031215614fc557600080fd5b833567ffffffffffffffff80821115614fdd57600080fd5b9085019060e08288031215614ff157600080fd5b614ff9614afa565b82358281111561500857600080fd5b61501489828601614b1d565b82525060208301358281111561502957600080fd5b61503589828601614b1d565b60208301525060408301356040820152615051606084016148c2565b6060820152615062608084016148c2565b608082015260a08301358281111561507957600080fd5b61508589828601614b1d565b60a08301525060c083013560c082015280955050602086013593506040860135915080821115614f0657600080fd5b6000806000606084860312156150c957600080fd5b833567ffffffffffffffff808211156150e157600080fd5b6150ed87838801614b1d565b9450602086013591508082111561510357600080fd5b5061511086828701614b1d565b925050604084013590509250925092565b6000806040838503121561513457600080fd5b823567ffffffffffffffff81111561514b57600080fd5b61515785828601614b1d565b95602094909401359450505050565b6000806040838503121561517957600080fd5b615182836148c2565b915061519060208401614e3b565b90509250929050565b60006040820184835260206040818501528185518084526060860191506060838202870101935082870160005b82811015614f8757605f198887030184526151e2868351614d1d565b955092840192908401906001016151c6565b602081526000825160a0602084015261521060c0840182614927565b90506020840151601f1984830301604085015261522d8282614927565b915050600160a060020a036040850151166060840152606084015161525181614d01565b806080850152506080840151614a9d60a0850182614a0b565b6020808252600b908201527f496420697320456d707479000000000000000000000000000000000000000000604082015260600190565b6020808252600d908201527f5573657220496420456d70747900000000000000000000000000000000000000604082015260600190565b6002810460018216806152ec57607f821691505b6020821081036104525760e060020a634e487b7102600052602260045260246000fd5b60208082526010908201527f5573657220456d61696c20456d70747900000000000000000000000000000000604082015260600190565b6020808252600e908201527f42616e6b206e6f7420666f756e64000000000000000000000000000000000000604082015260600190565b60208082526012908201527f42616e6b206973206e6f74206163746976650000000000000000000000000000604082015260600190565b600082516153c68184602087016148fb565b9190910192915050565b8054600090600281046001808316806153ea57607f831692505b6020808410820361540e5760e060020a634e487b7102600052602260045260246000fd5b83885260208801828015615429576001811461543a57615465565b60ff19871682528282019750615465565b60008981526020902060005b8781101561545f57815484820152908601908401615446565b83019850505b5050505050505092915050565b6060815260006154856060830186614927565b828103602084015261549781866153d0565b90508281036040840152614e0481856153d0565b60208082526015908201527f4f6e6c792061646d696e20697320616c6c6f7765640000000000000000000000604082015260600190565b60e060020a634e487b7102600052603260045260246000fd5b60e060020a634e487b7102600052601160045260246000fd5b600060018201615526576155266154fb565b5060010190565b6080815260006155406080830187614927565b600160a060020a03868116602085015285166040840152905061556283614d01565b82606083015295945050505050565b6060815260006155846060830186614927565b828103602084015261559681866153d0565b90508281036040840152614e048185614927565b600160a060020a03851681526080602082015260006155cc6080830186614927565b82810360408401526155de8186614927565b905082810360608401526155f28185614927565b979650505050505050565b600160a060020a038416815260606020820152600061561f6060830185614927565b8281036040840152614e048185614927565b60e060020a634e487b7102600052601260045260246000fd5b60008261565957615659615631565b500690565b60008261566d5761566d615631565b500490565b600082821015615684576156846154fb565b500390565b60008160001904831182151516156156a3576156a36154fb565b500290565b600160a060020a038416815260606020820152600061561f60608301856153d0565b600160a060020a03831681526040602082015260006156ec60408301846153d0565b949350505050565b600061ffff80831681810361570b5761570b6154fb565b600101939250505056fea2646970667358221220a089949b0a2777f139e989e57c8846fb5dae4ea165a6bd18aa9a864eb0d7803b64736f6c634300080d0033",
  "immutableReferences": {},
  "source": "// SPDX-License-Identifier: GPL-3.0\npragma experimental ABIEncoderV2;\npragma solidity >=0.4.25 <0.9.0;\n\n/** \nAssumptions\n* Finanicial Institutions - Bank\n* Users - Customer\n* Super Admin - Admin\n*/\n\nimport \"./Customers.sol\";\nimport \"./Banks.sol\";\n\n/**\n * @title KYC\n * @author Suresh Konakanchi\n * @dev Library for managing KYC process seemlessly using de-centralised system\n */\ncontract KYC is Customers, Banks {\n    address admin;\n    address[] internal userList;\n\n    mapping(address => Types.User) internal users;\n    mapping(string => Types.KycRequest) internal kycRequests;\n    mapping(address => address[]) internal bankCustomers; // All customers associated to a Bank\n    mapping(address => address[]) internal customerbanks; // All banks associated to a Customer\n\n    /**\n     * @notice Set admin to one who deploy this contract\n     * Who will act as the super-admin to add all the financial institutions (banks)\n     * @param name_ Name of the admin\n     * @param email_ Email of the admin\n     */\n    constructor(string memory name_, string memory email_) {\n        admin = msg.sender;\n        Types.User memory usr_ = Types.User({\n            name: name_,\n            email: email_,\n            id_: admin,\n            role: Types.Role.Admin,\n            status: Types.BankStatus.Active\n        });\n        users[admin] = usr_;\n        userList.push(admin);\n    }\n\n    // Modifiers\n\n    /**\n     * @notice Checks whether the requestor is admin\n     */\n    modifier isAdmin() {\n        require(msg.sender == admin, \"Only admin is allowed\");\n        _;\n    }\n\n    // Support functions\n\n    /**\n     * @notice Checks whether the KYC request already exists\n     * @param reqId_ Unique Id of the KYC request\n     * @return boolean which says request exists or not\n     */\n    function kycRequestExists(string memory reqId_)\n        internal\n        view\n        returns (bool)\n    {\n        require(!Helpers.compareStrings(reqId_, \"\"), \"Request Id empty\");\n        return Helpers.compareStrings(kycRequests[reqId_].id_, reqId_);\n    }\n\n    /**\n     * @notice All kyc requests. Data will be sent in pages to avoid the more gas fee\n     * @param pageNumber page number for which data is needed (1..2..3....n)\n     * @param isForBank List needed for bank or for customer\n     * @return totalPages Total pages available\n     * @return KycRequest[] List of KYC requests in the current page\n     */\n    function getKYCRequests(uint256 pageNumber, bool isForBank)\n        internal\n        view\n        returns (uint256 totalPages, Types.KycRequest[] memory)\n    {\n        require(pageNumber > 0, \"PN should be > zero\");\n        (\n            uint256 pages,\n            uint256 pageLength_,\n            uint256 startIndex_,\n            uint256 endIndex_\n        ) = Helpers.getIndexes(\n                pageNumber,\n                isForBank\n                    ? bankCustomers[msg.sender]\n                    : customerbanks[msg.sender]\n            );\n        Types.KycRequest[] memory list_ = new Types.KycRequest[](pageLength_);\n        for (uint256 i = startIndex_; i < endIndex_; i++)\n            list_[i] = isForBank\n                ? kycRequests[\n                    Helpers.append(msg.sender, bankCustomers[msg.sender][i])\n                ]\n                : kycRequests[\n                    Helpers.append(customerbanks[msg.sender][i], msg.sender)\n                ];\n        return (pages, list_);\n    }\n\n    // Events\n\n    event KycRequestAdded(string reqId, string bankName, string customerName);\n    event KycReRequested(string reqId, string bankName, string customerName);\n    event KycStatusChanged(\n        string reqId,\n        address customerId,\n        address bankId,\n        Types.KycStatus status\n    );\n    event DataHashPermissionChanged(\n        string reqId,\n        address customerId,\n        address bankId,\n        Types.DataHashStatus status\n    );\n\n    // Admin Interface\n\n    /**\n     * @dev All the banks list. Data will be sent in pages to avoid the more gas fee\n     * @param pageNumber page number for which data is needed (1..2..3....n)\n     * @return totalPages Total pages available\n     * @return Bank[] List of banks in the current page\n     */\n    function getAllBanks(uint256 pageNumber)\n        public\n        view\n        isAdmin\n        returns (uint256 totalPages, Types.Bank[] memory)\n    {\n        return getallbanks(pageNumber);\n    }\n\n    /**\n     * @dev To add new bank account\n     * @param bank_ Bank details, which need to be added to the system\n     */\n    function addBank(Types.Bank memory bank_) public isAdmin {\n        addbank(bank_);\n        // Adding to common list\n        users[bank_.id_] = Types.User({\n            name: bank_.name,\n            email: bank_.email,\n            id_: bank_.id_,\n            role: Types.Role.Bank,\n            status: Types.BankStatus.Active\n        });\n        userList.push(bank_.id_);\n    }\n\n    /**\n     * @dev To add new bank account\n     * @param id_ Bank's metamask address\n     * @param email_ Bank's email address that need to be updated\n     * @param name_ Bank's name which need to be updated\n     */\n    function updateBankDetails(\n        address id_,\n        string memory email_,\n        string memory name_\n    ) public isAdmin {\n        updatebank(id_, email_, name_);\n        // Updating in common list\n        users[id_].name = name_;\n        users[id_].email = email_;\n    }\n\n    /**\n     * @dev To add new bank account\n     * @param id_ Bank's metamask address\n     * @param makeActive_ If true, bank will be marked as active, else, it will be marked as deactivateds\n     */\n    function activateDeactivateBank(address id_, bool makeActive_)\n        public\n        isAdmin\n    {\n        // Updating in common list\n        users[id_].status = activatedeactivatebank(id_, makeActive_);\n    }\n\n    // Bank Interface\n\n    /**\n     * @dev List of customers, who are linked to the current bank. Data will be sent in pages to avoid the more gas fee\n     * @param pageNumber page number for which data is needed (1..2..3....n)\n     * @return totalPages Total pages available\n     * @return KycRequest[] List of KYC requests in the current page\n     */\n    function getCustomersOfBank(uint256 pageNumber)\n        public\n        view\n        isValidBank(msg.sender)\n        returns (uint256 totalPages, Types.KycRequest[] memory)\n    {\n        return getKYCRequests(pageNumber, true);\n    }\n\n    /**\n     * @notice Records new KYC request for a customer\n     * @param customer_ Customer details for whom the request is to be raised\n     * @param currentTime_ Current Date & Time in unix epoch timestamp\n     * @param notes_ Any additional notes that need to be added\n     */\n    function addKycRequest(\n        Types.Customer memory customer_,\n        uint256 currentTime_,\n        string memory notes_\n    ) public isValidBank(msg.sender) {\n        string memory reqId_ = Helpers.append(msg.sender, customer_.id_);\n        require(!kycRequestExists(reqId_), \"User had kyc req.\");\n\n        kycRequests[reqId_] = Types.KycRequest({\n            id_: reqId_,\n            userId_: customer_.id_,\n            customerName: customer_.name,\n            bankId_: msg.sender,\n            bankName: getsinglebank(msg.sender).name,\n            dataHash: customer_.dataHash,\n            updatedOn: currentTime_,\n            status: Types.KycStatus.Pending,\n            dataRequest: Types.DataHashStatus.Pending,\n            additionalNotes: notes_\n        });\n        bankCustomers[msg.sender].push(customer_.id_);\n        customerbanks[customer_.id_].push(msg.sender);\n        emit KycRequestAdded(\n            reqId_,\n            kycRequests[reqId_].bankName,\n            customer_.name\n        );\n\n        if (!customerExists(customer_.id_)) {\n            addcustomer(customer_);\n            // Adding to common list\n            users[customer_.id_] = Types.User({\n                name: customer_.name,\n                email: customer_.email,\n                id_: customer_.id_,\n                role: Types.Role.Customer,\n                status: Types.BankStatus.Active\n            });\n            userList.push(customer_.id_);\n        }\n    }\n\n    /**\n     * @notice Updates existing KYC request for a customer (It's a re-request)\n     * @param id_ Customer ID for whom the request has to be re-raised\n     * @param notes_ Any additional notes that need to be added\n     */\n    function reRequestForKycRequest(address id_, string memory notes_)\n        public\n        isValidBank(msg.sender)\n    {\n        string memory reqId_ = Helpers.append(msg.sender, id_);\n        require(kycRequestExists(reqId_), \"KYC req not found\");\n        require(customerExists(id_), \"User not found\");\n\n        // kycRequests[reqId_].status = Types.KycStatus.Pending;\n        kycRequests[reqId_].dataRequest = Types.DataHashStatus.Pending;\n        kycRequests[reqId_].additionalNotes = notes_;\n\n        emit KycReRequested(\n            reqId_,\n            kycRequests[reqId_].bankName,\n            kycRequests[reqId_].customerName\n        );\n    }\n\n    /**\n     * @dev To mark the KYC verification as failure\n     * @param userId_ Id of the user\n     * @param userId_ KYC Verified\n     * @param note_ Any info that need to be shared\n     */\n    function updateKycVerification(\n        address userId_,\n        bool verified_,\n        string memory note_\n    ) public isValidBank(msg.sender) {\n        string memory reqId_ = Helpers.append(msg.sender, userId_);\n        require(kycRequestExists(reqId_), \"User doesn't have KYC req\");\n\n        Types.KycStatus status_ = Types.KycStatus.Pending;\n        if (verified_) {\n            status_ = Types.KycStatus.KYCVerified;\n            updatekyccount(msg.sender);\n            updatekycdoneby(userId_);\n        } else {\n            status_ = Types.KycStatus.KYCFailed;\n        }\n\n        kycRequests[reqId_].status = status_;\n        kycRequests[reqId_].additionalNotes = note_;\n        emit KycStatusChanged(reqId_, userId_, msg.sender, status_);\n    }\n\n    /**\n     * @dev Search for customer details in the list that the bank is directly linked to\n     * @param id_ Customer's metamask Id\n     * @return boolean to say if customer exists or not\n     * @return Customer object to get the complete details of the customer\n     * @return KycRequest object to get the details about the request & it's status\n     * Costly operation if we had more customers linked to this single bank\n     */\n    function searchCustomers(address id_)\n        public\n        view\n        isValidCustomer(id_)\n        isValidBank(msg.sender)\n        returns (\n            bool,\n            Types.Customer memory,\n            Types.KycRequest memory\n        )\n    {\n        bool found_;\n        Types.Customer memory customer_;\n        Types.KycRequest memory request_;\n        (found_, customer_) = searchcustomers(id_, bankCustomers[msg.sender]);\n        if (found_) request_ = kycRequests[Helpers.append(msg.sender, id_)];\n        return (found_, customer_, request_);\n    }\n\n    // Customer Interface\n\n    /**\n     * @notice List of all banks. Data will be sent in pages to avoid the more gas fee\n     * @dev This is customer facing RPC end point\n     * @param pageNumber page number for which data is needed (1..2..3....n)\n     * @return totalPages Total pages available\n     * @return KycRequest[] List of KYC requests in the current page\n     */\n    function getBankRequests(uint256 pageNumber)\n        public\n        view\n        isValidCustomer(msg.sender)\n        returns (uint256 totalPages, Types.KycRequest[] memory)\n    {\n        return getKYCRequests(pageNumber, false);\n    }\n\n    /**\n     * @dev Updates the KYC request (Either Approves or Rejects)\n     * @param bankId_ Id of the bank\n     * @param approve_ Approve the data hash or reject\n     * @param note_ Any info that need to be shared\n     */\n    function actionOnKycRequest(\n        address bankId_,\n        bool approve_,\n        string memory note_\n    ) public isValidCustomer(msg.sender) isValidBank(bankId_) {\n        string memory reqId_ = Helpers.append(bankId_, msg.sender);\n        require(kycRequestExists(reqId_), \"User doesn't have KYC req\");\n\n        Types.DataHashStatus status_ = Types.DataHashStatus.Pending;\n        if (approve_) {\n            status_ = Types.DataHashStatus.Approved;\n        } else {\n            status_ = Types.DataHashStatus.Rejected;\n        }\n        kycRequests[reqId_].dataRequest = status_;\n        kycRequests[reqId_].additionalNotes = note_;\n\n        emit DataHashPermissionChanged(reqId_, msg.sender, bankId_, status_);\n    }\n\n    /**\n     * @dev Updates the user profile\n     * @param name_ Customer name\n     * @param email_ Email that need to be updated\n     * @param mobile_ Mobile number that need to be updated\n     */\n    function updateProfile(\n        string memory name_,\n        string memory email_,\n        uint256 mobile_\n    ) public isValidCustomer(msg.sender) {\n        updateprofile(name_, email_, mobile_);\n        // Updating in common list\n        users[msg.sender].name = name_;\n        users[msg.sender].email = email_;\n    }\n\n    /**\n     * @dev Updates the Datahash of the documents\n     * @param hash_ Data hash value that need to be updated\n     * @param currentTime_ Current Date Time in unix epoch timestamp\n     */\n    function updateDatahash(string memory hash_, uint256 currentTime_)\n        public\n        isValidCustomer(msg.sender)\n    {\n        updatedatahash(hash_, currentTime_);\n\n        // Reset KYC verification status for all banks\n        address[] memory banksList_ = customerbanks[msg.sender];\n        for (uint256 i = 0; i < banksList_.length; i++) {\n            string memory reqId_ = Helpers.append(banksList_[i], msg.sender);\n            if (kycRequestExists(reqId_)) {\n                kycRequests[reqId_].dataHash = hash_;\n                kycRequests[reqId_].updatedOn = currentTime_;\n                kycRequests[reqId_].status = Types.KycStatus.Pending;\n                kycRequests[reqId_].additionalNotes = \"Updated all my docs\";\n            }\n        }\n    }\n\n    /**\n     * @dev Removes the permission to a specific bank, so that they can't access the documents again\n     * @param bankId_ Id of the bank to whom permission has to be revoked\n     * @param notes_ Any additional notes that need to included\n     */\n    function removerDatahashPermission(address bankId_, string memory notes_)\n        public\n        isValidCustomer(msg.sender)\n    {\n        string memory reqId_ = Helpers.append(bankId_, msg.sender);\n        require(kycRequestExists(reqId_), \"Permission not found\");\n        kycRequests[reqId_].dataRequest = Types.DataHashStatus.Rejected;\n        kycRequests[reqId_].additionalNotes = notes_;\n        emit DataHashPermissionChanged(\n            reqId_,\n            msg.sender,\n            bankId_,\n            Types.DataHashStatus.Rejected\n        );\n    }\n\n    /**\n     * @dev Search for bank details in the list that the customer is directly linked to\n     * @param bankId_ Bank's metamask Id\n     * @return boolean to say if bank exists or not\n     * @return Bank object to get the complete details of the bank\n     * @return KycRequest object to get the details about the request & it's status\n     * Costly operation if we had more banks linked to this single customer\n     */\n    function searchBanks(address bankId_)\n        public\n        view\n        isValidCustomer(msg.sender)\n        isValidBank(bankId_)\n        returns (\n            bool,\n            Types.Bank memory,\n            Types.KycRequest memory\n        )\n    {\n        bool found_;\n        Types.Bank memory bank_;\n        Types.KycRequest memory request_;\n        address[] memory banks_ = customerbanks[msg.sender];\n\n        for (uint256 i = 0; i < banks_.length; i++) {\n            if (banks_[i] == bankId_) {\n                found_ = true;\n                bank_ = getsinglebank(bankId_);\n                request_ = kycRequests[Helpers.append(bankId_, msg.sender)];\n                break;\n            }\n        }\n        return (found_, bank_, request_);\n    }\n\n    // Common Interface\n\n    /**\n     * @dev Updates the KYC request (Either Approves or Rejects)\n     * @return User object which contains the role & other basic info\n     */\n    function whoAmI() public view returns (Types.User memory) {\n        require(msg.sender != address(0), \"Sender Id Empty\");\n        require(users[msg.sender].id_ != address(0), \"User Id Empty\");\n        return users[msg.sender];\n    }\n\n    /**\n     * @dev To get details of the customer\n     * @param id_ Customer's metamask address\n     * @return Customer object which will have complete details of the customer\n     */\n    function getCustomerDetails(address id_)\n        public\n        view\n        isValidCustomer(id_)\n        returns (Types.Customer memory)\n    {\n        return getcustomerdetails(id_);\n    }\n\n    /**\n     * @dev To get details of the bank\n     * @param id_ Bank's metamask address\n     * @return Bank object which will have complete details of the bank\n     */\n    function getBankDetails(address id_)\n        public\n        view\n        isValidBank(id_)\n        returns (Types.Bank memory)\n    {\n        return getsinglebank(id_);\n    }\n}\n",
  "sourcePath": "/Users/joyanserrao/Desktop/final/content-fest/KYC/blockchain/contracts/Kyc.sol",
  "compiler": {
    "name": "solc",
    "version": "0.8.13+commit.abaa5c0e.Emscripten.clang"
  },
  "schemaVersion": "3.4.6",
  "updatedAt": "2022-04-13T11:11:29.131Z",
  "networkType": "ethereum",
  "devdoc": {
    "author": "Suresh Konakanchi",
    "details": "Library for managing KYC process seemlessly using de-centralised system",
    "kind": "dev",
    "methods": {
      "actionOnKycRequest(address,bool,string)": {
        "details": "Updates the KYC request (Either Approves or Rejects)",
        "params": {
          "approve_": "Approve the data hash or reject",
          "bankId_": "Id of the bank",
          "note_": "Any info that need to be shared"
        }
      },
      "activateDeactivateBank(address,bool)": {
        "details": "To add new bank account",
        "params": {
          "id_": "Bank's metamask address",
          "makeActive_": "If true, bank will be marked as active, else, it will be marked as deactivateds"
        }
      },
      "addBank((string,string,address,string,uint16,uint8))": {
        "details": "To add new bank account",
        "params": {
          "bank_": "Bank details, which need to be added to the system"
        }
      },
      "addKycRequest((string,string,uint256,address,address,string,uint256),uint256,string)": {
        "params": {
          "currentTime_": "Current Date & Time in unix epoch timestamp",
          "customer_": "Customer details for whom the request is to be raised",
          "notes_": "Any additional notes that need to be added"
        }
      },
      "constructor": {
        "params": {
          "email_": "Email of the admin",
          "name_": "Name of the admin"
        }
      },
      "getAllBanks(uint256)": {
        "details": "All the banks list. Data will be sent in pages to avoid the more gas fee",
        "params": {
          "pageNumber": "page number for which data is needed (1..2..3....n)"
        },
        "returns": {
          "_1": "Bank[] List of banks in the current page",
          "totalPages": "Total pages available"
        }
      },
      "getBankDetails(address)": {
        "details": "To get details of the bank",
        "params": {
          "id_": "Bank's metamask address"
        },
        "returns": {
          "_0": "Bank object which will have complete details of the bank"
        }
      },
      "getBankRequests(uint256)": {
        "details": "This is customer facing RPC end point",
        "params": {
          "pageNumber": "page number for which data is needed (1..2..3....n)"
        },
        "returns": {
          "_1": "KycRequest[] List of KYC requests in the current page",
          "totalPages": "Total pages available"
        }
      },
      "getCustomerDetails(address)": {
        "details": "To get details of the customer",
        "params": {
          "id_": "Customer's metamask address"
        },
        "returns": {
          "_0": "Customer object which will have complete details of the customer"
        }
      },
      "getCustomersOfBank(uint256)": {
        "details": "List of customers, who are linked to the current bank. Data will be sent in pages to avoid the more gas fee",
        "params": {
          "pageNumber": "page number for which data is needed (1..2..3....n)"
        },
        "returns": {
          "_1": "KycRequest[] List of KYC requests in the current page",
          "totalPages": "Total pages available"
        }
      },
      "reRequestForKycRequest(address,string)": {
        "params": {
          "id_": "Customer ID for whom the request has to be re-raised",
          "notes_": "Any additional notes that need to be added"
        }
      },
      "removerDatahashPermission(address,string)": {
        "details": "Removes the permission to a specific bank, so that they can't access the documents again",
        "params": {
          "bankId_": "Id of the bank to whom permission has to be revoked",
          "notes_": "Any additional notes that need to included"
        }
      },
      "searchBanks(address)": {
        "details": "Search for bank details in the list that the customer is directly linked to",
        "params": {
          "bankId_": "Bank's metamask Id"
        },
        "returns": {
          "_0": "boolean to say if bank exists or not",
          "_1": "Bank object to get the complete details of the bank",
          "_2": "KycRequest object to get the details about the request & it's status Costly operation if we had more banks linked to this single customer"
        }
      },
      "searchCustomers(address)": {
        "details": "Search for customer details in the list that the bank is directly linked to",
        "params": {
          "id_": "Customer's metamask Id"
        },
        "returns": {
          "_0": "boolean to say if customer exists or not",
          "_1": "Customer object to get the complete details of the customer",
          "_2": "KycRequest object to get the details about the request & it's status Costly operation if we had more customers linked to this single bank"
        }
      },
      "updateBankDetails(address,string,string)": {
        "details": "To add new bank account",
        "params": {
          "email_": "Bank's email address that need to be updated",
          "id_": "Bank's metamask address",
          "name_": "Bank's name which need to be updated"
        }
      },
      "updateDatahash(string,uint256)": {
        "details": "Updates the Datahash of the documents",
        "params": {
          "currentTime_": "Current Date Time in unix epoch timestamp",
          "hash_": "Data hash value that need to be updated"
        }
      },
      "updateKycVerification(address,bool,string)": {
        "details": "To mark the KYC verification as failure",
        "params": {
          "note_": "Any info that need to be shared",
          "userId_": "KYC Verified"
        }
      },
      "updateProfile(string,string,uint256)": {
        "details": "Updates the user profile",
        "params": {
          "email_": "Email that need to be updated",
          "mobile_": "Mobile number that need to be updated",
          "name_": "Customer name"
        }
      },
      "whoAmI()": {
        "details": "Updates the KYC request (Either Approves or Rejects)",
        "returns": {
          "_0": "User object which contains the role & other basic info"
        }
      }
    },
    "title": "KYC",
    "version": 1
  },
  "userdoc": {
    "kind": "user",
    "methods": {
      "addKycRequest((string,string,uint256,address,address,string,uint256),uint256,string)": {
        "notice": "Records new KYC request for a customer"
      },
      "constructor": {
        "notice": "Set admin to one who deploy this contract Who will act as the super-admin to add all the financial institutions (banks)"
      },
      "getBankRequests(uint256)": {
        "notice": "List of all banks. Data will be sent in pages to avoid the more gas fee"
      },
      "reRequestForKycRequest(address,string)": {
        "notice": "Updates existing KYC request for a customer (It's a re-request)"
      }
    },
    "version": 1
  }
}